:100000000C9435000C945D000C945D000C945D0024
:100010000C945D000C945D000C945D000C945D00EC
:100020000C945D000C945D000C945D000C945D00DC
:100030000C945D000C945D000C945D000C945D00CC
:100040000C948D010C945D000C94FD010C94D7016F
:100050000C945D000C945D000C945D000C945D00AC
:100060000C945D000C945D00E20211241FBECFEFE2
:10007000D8E0DEBFCDBF11E0A0E0B1E0E8E3F6E0FC
:1000800002C005900D92A833B107D9F721E0A8E38B
:10009000B1E001C01D92A83EB207E1F710E0C5E350
:1000A000D0E004C02197FE010E940F03C433D107A2
:1000B000C9F70E942F020C941A030C940000CF92EF
:1000C000DF92EF92FF920F931F93CF93DF936C0118
:1000D0007A018B01C0E0D0E0CE15DF0589F0D801B0
:1000E0006D918D01D601ED91FC910190F081E02D93
:1000F000C6010995892B11F47E0102C02196ECCF2F
:10010000C701DF91CF911F910F91FF90EF90DF908A
:10011000CF900895089580E090E00895FC01538DFC
:10012000448D252F30E0842F90E0821B930B5417D1
:1001300010F0CF96089501970895FC01918D828D5E
:10014000981761F0828DDF01A80FB11D5D968C912B
:10015000928D9F5F9F73928F90E008958FEF9FEF36
:100160000895FC01918D828D981731F0828DE80FF2
:10017000F11D858D90E008958FEF9FEF0895FC01AC
:10018000918D228D892F90E0805C9F4F821B910979
:100190008F73992708958BE491E00E94BF0021E0BE
:1001A000892B09F420E0822F0895FC01848DDF0162
:1001B000A80FB11DA35ABF4F2C91848D90E00196DA
:1001C0008F739927848FA689B7892C93A089B189C9
:1001D0008C9180648C93938D848D981306C00288D3
:1001E000F389E02D80818F7D80830895EF92FF92C7
:1001F0000F931F93CF93DF93EC0181E0888F9B8D4A
:100200008C8D981305C0E889F989808185FD24C00B
:10021000F62E0B8D10E00F5F1F4F0F731127E02E8E
:100220008C8DE8120CC00FB607FCFACFE889F9896B
:10023000808185FFF5CFCE010E94D500F1CF8B8D57
:10024000FE01E80FF11DE35AFF4FF0820B8FEA89A0
:10025000FB898081806207C0EE89FF896083E8891D
:10026000F98980818064808381E090E0DF91CF9183
:100270001F910F91FF90EF900895CF93DF93EC01C2
:10028000888D8823C9F0EA89FB89808185FD05C0B6
:10029000A889B9898C9186FD0FC00FB607FCF5CFF0
:1002A000808185FFF2CFA889B9898C9185FFEDCF38
:1002B000CE010E94D500E7CFDF91CF91089580E075
:1002C00090E0892B29F00E94CB0081110C94000052
:1002D0000895CF93DF93009779F0FC0101900020FF
:1002E000E9F73197AF01481B590BBC018BE491E052
:1002F0000E945F00EC0102C0C0E0D0E042E050E0AC
:1003000062E171E08BE491E00E945F008C0F9D1F21
:10031000DF91CF9108950E9415031F920F920FB69F
:100320000F9211242F933F938F939F93AF93BF937B
:100330008091470190914801A0914901B0914A01F3
:100340003091460123E0230F2D3720F40196A11DA3
:10035000B11D05C026E8230F0296A11DB11D2093F3
:1003600046018093470190934801A0934901B093BF
:100370004A018091420190914301A0914401B091C2
:1003800045010196A11DB11D809342019093430147
:10039000A0934401B0934501BF91AF919F918F917C
:1003A0003F912F910F900FBE0F901F9018951F92A5
:1003B0000F920FB60F9211242F933F934F935F9399
:1003C0006F937F938F939F93AF93BF93EF93FF931D
:1003D0008BE491E00E94D500FF91EF91BF91AF9126
:1003E0009F918F917F916F915F914F913F912F914D
:1003F0000F900FBE0F901F9018951F920F920FB67F
:100400000F9211242F938F939F93EF93FF93E0917B
:100410005B01F0915C018081E0916101F0916201EA
:1004200082FD12C09081809164018F5F8F73209153
:100430006501821751F0E0916401F0E0E55BFE4F49
:10044000958F8093640101C08081FF91EF919F910E
:100450008F912F910F900FBE0F901F901895789449
:1004600084B5826084BD84B5816084BD85B58260B9
:1004700085BD85B5816085BD80916E00816080936A
:100480006E001092810080918100826080938100D3
:1004900080918100816080938100809180008160E3
:1004A000809380008091B10084608093B10080913E
:1004B000B00081608093B00080917A008460809366
:1004C0007A0080917A00826080937A0080917A002D
:1004D000816080937A0080917A00806880937A00AE
:1004E0001092C100E0915B01F0915C0182E0808399
:1004F000E0915701F09158011082E0915901F0917B
:100500005A018FEC808310926301E0915F01F091BA
:10051000600186E08083E0915D01F0915E01808161
:1005200080618083E0915D01F0915E01808188604F
:100530008083E0915D01F0915E018081806880831D
:10054000E0915D01F0915E0180818F7D808385E186
:1005500091E00E94690182E390E0909341018093D1
:10056000400184E690E090933F0180933E0184E156
:1005700090E090933D0180933C0187ED97E090934C
:100580003B0180933A0186E291E00E94690120914B
:100590003C0130913D0180913A0190913B01820FE5
:1005A000931F90933901809338018B3E974029F433
:1005B0008AE291E00E94690104C083E391E00E9415
:1005C0006901FFCFEBE4F1E01382128288EE93E041
:1005D000A0E0B0E084839583A683B78384E091E0B4
:1005E0009183808385EC90E09587848784EC90E00C
:1005F0009787868780EC90E0918B808B81EC90E0F0
:10060000938B828B82EC90E0958B848B86EC90E0D0
:10061000978B868B118E128E138E148E0895EE0F8B
:10062000FF1F0590F491E02D099481E090E0F8948B
:080630000C941A03F894FFCFAB
:1006380000000000F6005F008E003D01BF009D0035
:10064800B1000D0A0041726475696E6F2050726FB7
:100658006A6563747300424A4B0051756172657331
:080668006D6100506570650032
:00000001FF
